:100000000C9446000C9465000C9465000C946500FB
:100010000C9465000C9465000C9465000C946500CC
:100020000C9465000C9465000C9465000C946500BC
:100030000C9465000C940C010C9465000C94650004
:100040000C9465000C9465000C9465000C9465009C
:100050000C9465000C9465000C9465000C9465008C
:100060000C9465000C9465000C9465000C9465007C
:100070000C9465000C9465000C9465000C9465006C
:100080000C9465000C9465000C94650011241FBE4F
:10009000CFEFD0E4DEBFCDBF11E0A0E0B1E0E8EDEE
:1000A000F8E000E00BBF02C007900D92A235B10747
:1000B000D9F721E0A2E5B1E001C01D92AE35B2074B
:1000C000E1F70E94AA020C946A040C940000CF93FA
:1000D000DF9300D01F92CDB7DEB789837B836A831D
:1000E00089818A3031F48A819B81BC018DE00E9434
:1000F000670080EC90E0FC018081882F90E08072A6
:100100009927892BB1F386EC90E02981FC012083AB
:1001100080E090E00F900F900F90DF91CF910895C5
:10012000CF93DF9300D000D0CDB7DEB769837A8359
:100130008B839C8389819A81AB81BC8180930E01E2
:1001400090930F01A0931001B093110180910E01C3
:1001500090910F01A0911001B09111018093530172
:1001600090935401A0935501B093560100000F9055
:100170000F900F900F90DF91CF910895CF93DF9361
:10018000CDB7DEB781E890E02BE0FC01208388E862
:1001900090E02DE730E0FC01318320838FE690E092
:1001A00022E0FC01208384E890E0FC0111821082AF
:1001B00080910E0190910F01A0911001B091110159
:1001C0008093530190935401A0935501B09356012D
:1001D0008FE590E02FE530E0F90120812068FC01F7
:1001E00020830000DF91CF910895CF93DF93CDB7A7
:1001F000DEB781E890E0FC0110820000DF91CF9132
:100200000895CF93DF93CDB7DEB781E0809352019D
:100210000000DF91CF9108951F920F9200905F0030
:100220000F92112400905B000F922F933F934F93F6
:100230005F936F937F938F939F93AF93BF93EF934E
:10024000FF93CF93DF93CDB7DEB7809153019091A9
:100250005401A0915501B09156010197A109B1092E
:100260008093530190935401A0935501B09356018C
:100270008091530190915401A0915501B091560184
:10028000892B8A2B8B2B91F40E94010180910E0106
:1002900090910F01A0911001B09111018093530131
:1002A00090935401A0935501B09356010000DF9143
:1002B000CF91FF91EF91BF91AF919F918F917F91DE
:1002C0006F915F914F913F912F910F9000925B0042
:1002D0000F9000925F000F901F9018950F931F933F
:1002E000CF93DF9300D000D0CDB7DEB769837A8398
:1002F0008B839C838091580190915901A0915A0160
:10030000B0915B019C01AD0169817A818B819C81F7
:100310000E94D602882309F477C020E030E0A901CA
:1003200069817A818B819C810E94D602882351F455
:1003300081E990E021E930E0F90120812870FC0199
:10034000208309C081E990E021E930E0F9012081B2
:100350002360FC01208328E539E344E75FE36981FA
:100360007A818B819C810E94D602882344F488E99B
:1003700090E02FEF3FEFFC013183208334C020E079
:1003800034E244EF56E469817A818B819C810E943A
:10039000F803181634F488E990E0FC011182108209
:1003A00022C008E910E020E030E040E053E4698139
:1003B0007A818B819C810E94FD03DC01CB019C0131
:1003C000AD0160E074E284EF9AE40E94DB02DC019C
:1003D000CB01BC01CD010E944D03DC01CB01019793
:1003E000F8019183808384E990E0FC0111821082FE
:1003F00089819A81AB81BC81809358019093590186
:10040000A0935A01B0935B0100000F900F900F90E2
:100410000F90DF91CF911F910F910895CF93DF93AC
:10042000CDB7DEB780E990E020E4FC01208381E9CC
:1004300090E02BE0FC01208360E070E0CB010E94A3
:100440006E010000DF91CF910895CF93DF93CDB778
:10045000DEB780E990E0FC01108281E990E0FC01C8
:1004600010820000DF91CF910895CF93DF931F9208
:10047000CDB7DEB780E290E0FC018081882F90E06C
:100480008170992721E0892B09F020E02983809150
:100490005C0190915D018130910581F08130910581
:1004A00030F082309105A9F00397E9F146C081E070
:1004B00090E090935D0180935C0147C0898188231F
:1004C00009F440C082E090E090935D0180935C016C
:1004D00039C0809157018031D8F40E940E0280917A
:1004E0005701882F90E0880F991F880F991F8E5E03
:1004F0009E4FFC0180819181A281B381BC01CD011D
:100500000E946E01809157018F5F809357011DC03B
:10051000109257010E94250283E090E090935D01C4
:1005200080935C0112C08981882371F481E090E09E
:1005300090935D0180935C0107C010925D01109261
:100540005C0103C0000001C0000000000F90DF91BB
:10055000CF910895CF93DF93CDB7DEB781E290E0DE
:10056000FC01108282E290E02FEFFC01208384E204
:1005700090E02FEFFC01208385E290E0FC011082E7
:1005800068E371E080E090E00E9490000E94BE006D
:1005900010925D0110925C0100008091520188234D
:1005A000E1F30E94350210925201F6CF0E948303BC
:1005B00008F481E008950E94EF020C94BE030E94AB
:1005C000B70358F00E94B00340F029F45F3F29F0D0
:1005D0000C94A70351110C94F2030C94AD030E94E8
:1005E000CF0368F39923B1F3552391F3951B550B72
:1005F000BB27AA2762177307840738F09F5F5F4FF6
:10060000220F331F441FAA1FA9F335D00E2E3AF034
:10061000E0E832D091505040E695001CCAF72BD04C
:10062000FE2F29D0660F771F881FBB1F261737079D
:100630004807AB07B0E809F0BB0B802DBF01FF27CF
:1006400093585F4F3AF09E3F510578F00C94A70302
:100650000C94F2035F3FE4F3983ED4F386957795CC
:100660006795B795F7959F5FC9F7880F911D969588
:10067000879597F90895E1E0660F771F881FBB1FE4
:10068000621773078407BA0720F0621B730B840B91
:10069000BA0BEE1F88F7E09508950E945403689402
:1006A000B1110C94F20308950E94D70388F09F576C
:1006B00098F0B92F9927B751B0F0E1F0660F771F86
:1006C000881F991F1AF0BA95C9F714C0B13091F07C
:1006D0000E94F103B1E008950C94F103672F782F85
:1006E0008827B85F39F0B93FCCF386957795679541
:1006F000B395D9F73EF490958095709561957F4FAD
:100700008F4F9F4F0895990F0008550FAA0BE0E8EF
:10071000FEEF16161706E807F907C0F012161306C3
:10072000E407F50798F0621B730B840B950B39F403
:100730000A2661F0232B242B252B21F408950A2669
:1007400009F4A140A6958FEF811D811D089597F9A9
:100750009F6780E870E060E008959FEF80EC089567
:1007600000240A9416161706180609060895002490
:100770000A9412161306140605060895092E03940A
:10078000000C11F4882352F0BB0F40F4BF2B11F47E
:1007900060FF04C06F5F7F4F8F4F9F4F089557FDDD
:1007A0009058440F551F59F05F3F71F04795880FDF
:1007B00097FB991F61F09F3F79F087950895121676
:1007C00013061406551FF2CF4695F1DF08C0161622
:1007D00017061806991FF1CF8695710561050894D3
:1007E0000895E894BB2766277727CB0197F90895EA
:1007F0000E94830308F48FEF08950E9410040C9464
:10080000BE030E94B00338F00E94B70320F0952386
:1008100011F00C94A7030C94AD0311240C94F20373
:100820000E94CF0370F3959FC1F3950F50E0551FC1
:10083000629FF001729FBB27F00DB11D639FAA2735
:10084000F00DB11DAA1F649F6627B00DA11D661F84
:10085000829F2227B00DA11D621F739FB00DA11DA5
:10086000621F839FA00D611D221F749F3327A00D5F
:10087000611D231F849F600D211D822F762F6A2FFB
:1008800011249F5750409AF0F1F088234AF0EE0F60
:10089000FF1FBB1F661F771F881F91505040A9F78D
:1008A0009E3F510580F00C94A7030C94F2035F3F28
:1008B000E4F3983ED4F3869577956795B795F795C9
:1008C000E7959F5FC1F7FE2B880F911D9695879541
:0808D00097F90895F894FFCF99
:1008D80000000002000000006700000000000100A6
:1008E8000000A4D082430000C443719DAE43A4D04D
:1008F800A4437BD4924300D002440000C443719DBA
:10090800AE43A4D0A4437BD4924300D00244000059
:10091800C443719DAE43A4D0A443719DAE437BD420
:020928009243F8
:00000001FF
